{
  "contractName": "Channel",
  "abi": [
    {
      "inputs": [
        {
          "internalType": "address",
          "name": "_token",
          "type": "address"
        },
        {
          "internalType": "address[]",
          "name": "_owners",
          "type": "address[]"
        }
      ],
      "stateMutability": "nonpayable",
      "type": "constructor"
    },
    {
      "anonymous": false,
      "inputs": [
        {
          "indexed": false,
          "internalType": "bytes32",
          "name": "byte1",
          "type": "bytes32"
        },
        {
          "indexed": false,
          "internalType": "bytes32",
          "name": "byte2",
          "type": "bytes32"
        },
        {
          "indexed": false,
          "internalType": "address",
          "name": "bool1",
          "type": "address"
        },
        {
          "indexed": false,
          "internalType": "uint256",
          "name": "timestamp",
          "type": "uint256"
        }
      ],
      "name": "Debug",
      "type": "event"
    },
    {
      "anonymous": false,
      "inputs": [
        {
          "indexed": false,
          "internalType": "uint256",
          "name": "firstOwnerBalance",
          "type": "uint256"
        },
        {
          "indexed": false,
          "internalType": "uint256",
          "name": "secondOwnerBalance",
          "type": "uint256"
        },
        {
          "indexed": false,
          "internalType": "uint256",
          "name": "timestamp",
          "type": "uint256"
        }
      ],
      "name": "UpdateBalance",
      "type": "event"
    },
    {
      "anonymous": false,
      "inputs": [
        {
          "indexed": false,
          "internalType": "uint256",
          "name": "nonce",
          "type": "uint256"
        },
        {
          "indexed": false,
          "internalType": "bytes32",
          "name": "messageHash",
          "type": "bytes32"
        },
        {
          "indexed": false,
          "internalType": "uint256",
          "name": "firstOwnerBalance",
          "type": "uint256"
        },
        {
          "indexed": false,
          "internalType": "uint256",
          "name": "secondOwnerBalance",
          "type": "uint256"
        },
        {
          "indexed": false,
          "internalType": "bytes",
          "name": "firstOwnerSignature",
          "type": "bytes"
        },
        {
          "indexed": false,
          "internalType": "bytes",
          "name": "secondOwnerSignature",
          "type": "bytes"
        },
        {
          "indexed": false,
          "internalType": "address",
          "name": "sender",
          "type": "address"
        },
        {
          "indexed": false,
          "internalType": "uint256",
          "name": "timestamp",
          "type": "uint256"
        }
      ],
      "name": "VerifiedSignatures",
      "type": "event"
    },
    {
      "inputs": [
        {
          "internalType": "address",
          "name": "",
          "type": "address"
        }
      ],
      "name": "isOwner",
      "outputs": [
        {
          "internalType": "bool",
          "name": "",
          "type": "bool"
        }
      ],
      "stateMutability": "view",
      "type": "function",
      "constant": true
    },
    {
      "inputs": [
        {
          "internalType": "uint256",
          "name": "",
          "type": "uint256"
        }
      ],
      "name": "owners",
      "outputs": [
        {
          "internalType": "address",
          "name": "",
          "type": "address"
        }
      ],
      "stateMutability": "view",
      "type": "function",
      "constant": true
    },
    {
      "inputs": [],
      "name": "processedNonces",
      "outputs": [
        {
          "internalType": "uint256",
          "name": "",
          "type": "uint256"
        }
      ],
      "stateMutability": "view",
      "type": "function",
      "constant": true
    },
    {
      "inputs": [],
      "name": "token",
      "outputs": [
        {
          "internalType": "contract IToken",
          "name": "",
          "type": "address"
        }
      ],
      "stateMutability": "view",
      "type": "function",
      "constant": true
    },
    {
      "inputs": [
        {
          "internalType": "uint256",
          "name": "_nonce",
          "type": "uint256"
        },
        {
          "internalType": "bytes32",
          "name": "_messageHash",
          "type": "bytes32"
        },
        {
          "internalType": "uint256",
          "name": "_balance1",
          "type": "uint256"
        },
        {
          "internalType": "uint256",
          "name": "_balance2",
          "type": "uint256"
        },
        {
          "internalType": "bytes",
          "name": "_signature1",
          "type": "bytes"
        },
        {
          "internalType": "bytes",
          "name": "_signature2",
          "type": "bytes"
        }
      ],
      "name": "submitTx",
      "outputs": [],
      "stateMutability": "nonpayable",
      "type": "function"
    },
    {
      "inputs": [
        {
          "internalType": "bytes32",
          "name": "_messageHash",
          "type": "bytes32"
        }
      ],
      "name": "getEthSignedMessageHash",
      "outputs": [
        {
          "internalType": "bytes32",
          "name": "",
          "type": "bytes32"
        }
      ],
      "stateMutability": "pure",
      "type": "function",
      "constant": true
    },
    {
      "inputs": [
        {
          "internalType": "address",
          "name": "_signer",
          "type": "address"
        },
        {
          "internalType": "bytes32",
          "name": "_messageHash",
          "type": "bytes32"
        },
        {
          "internalType": "bytes",
          "name": "_signature",
          "type": "bytes"
        }
      ],
      "name": "isValidSignature",
      "outputs": [
        {
          "internalType": "bool",
          "name": "",
          "type": "bool"
        }
      ],
      "stateMutability": "pure",
      "type": "function",
      "constant": true
    },
    {
      "inputs": [
        {
          "internalType": "bytes32",
          "name": "_ethSignedMessageHash",
          "type": "bytes32"
        },
        {
          "internalType": "bytes",
          "name": "_signature",
          "type": "bytes"
        }
      ],
      "name": "recoverSigner",
      "outputs": [
        {
          "internalType": "address",
          "name": "",
          "type": "address"
        }
      ],
      "stateMutability": "pure",
      "type": "function",
      "constant": true
    },
    {
      "inputs": [
        {
          "internalType": "bytes",
          "name": "sig",
          "type": "bytes"
        }
      ],
      "name": "splitSignature",
      "outputs": [
        {
          "internalType": "bytes32",
          "name": "r",
          "type": "bytes32"
        },
        {
          "internalType": "bytes32",
          "name": "s",
          "type": "bytes32"
        },
        {
          "internalType": "uint8",
          "name": "v",
          "type": "uint8"
        }
      ],
      "stateMutability": "pure",
      "type": "function",
      "constant": true
    },
    {
      "inputs": [],
      "name": "getOwners",
      "outputs": [
        {
          "internalType": "address[]",
          "name": "",
          "type": "address[]"
        }
      ],
      "stateMutability": "view",
      "type": "function",
      "constant": true
    }
  ],
  "bytecode": "0x60806040523480156200001157600080fd5b506040516200201f3803806200201f8339818101604052810190620000379190620003a8565b60008151116200007e576040517f08c379a00000000000000000000000000000000000000000000000000000000081526004016200007590620004ea565b60405180910390fd5b60005b8151811015620002a6576000828281518110620000c7577f4e487b7100000000000000000000000000000000000000000000000000000000600052603260045260246000fd5b60200260200101519050600073ffffffffffffffffffffffffffffffffffffffff168173ffffffffffffffffffffffffffffffffffffffff16141562000144576040517f08c379a00000000000000000000000000000000000000000000000000000000081526004016200013b906200050c565b60405180910390fd5b600260008273ffffffffffffffffffffffffffffffffffffffff1673ffffffffffffffffffffffffffffffffffffffff16815260200190815260200160002060009054906101000a900460ff1615620001d4576040517f08c379a0000000000000000000000000000000000000000000000000000000008152600401620001cb90620004c8565b60405180910390fd5b6001600260008373ffffffffffffffffffffffffffffffffffffffff1673ffffffffffffffffffffffffffffffffffffffff16815260200190815260200160002060006101000a81548160ff0219169083151502179055506003819080600181540180825580915050600190039060005260206000200160009091909190916101000a81548173ffffffffffffffffffffffffffffffffffffffff021916908373ffffffffffffffffffffffffffffffffffffffff1602179055505080806200029d90620005e0565b91505062000081565b50816000806101000a81548173ffffffffffffffffffffffffffffffffffffffff021916908373ffffffffffffffffffffffffffffffffffffffff1602179055505050620006a6565b600062000306620003008462000562565b6200052e565b905080838252602082019050828560208602820111156200032657600080fd5b60005b858110156200035a57816200033f888262000364565b84526020840193506020830192505060018101905062000329565b5050509392505050565b60008151905062000375816200068c565b92915050565b600082601f8301126200038d57600080fd5b81516200039f848260208601620002ef565b91505092915050565b60008060408385031215620003bc57600080fd5b6000620003cc8582860162000364565b925050602083015167ffffffffffffffff811115620003ea57600080fd5b620003f8858286016200037b565b9150509250929050565b60006200041160108362000591565b91507f6f776e6572206e6f7420756e69717565000000000000000000000000000000006000830152602082019050919050565b600062000453600f8362000591565b91507f6f776e65727320726571756972656400000000000000000000000000000000006000830152602082019050919050565b600062000495600d8362000591565b91507f696e76616c6964206f776e6572000000000000000000000000000000000000006000830152602082019050919050565b60006020820190508181036000830152620004e38162000402565b9050919050565b60006020820190508181036000830152620005058162000444565b9050919050565b60006020820190508181036000830152620005278162000486565b9050919050565b6000604051905081810181811067ffffffffffffffff821117156200055857620005576200065d565b5b8060405250919050565b600067ffffffffffffffff82111562000580576200057f6200065d565b5b602082029050602081019050919050565b600082825260208201905092915050565b6000620005af82620005b6565b9050919050565b600073ffffffffffffffffffffffffffffffffffffffff82169050919050565b6000819050919050565b6000620005ed82620005d6565b91507fffffffffffffffffffffffffffffffffffffffffffffffffffffffffffffffff8214156200062357620006226200062e565b5b600182019050919050565b7f4e487b7100000000000000000000000000000000000000000000000000000000600052601160045260246000fd5b7f4e487b7100000000000000000000000000000000000000000000000000000000600052604160045260246000fd5b6200069781620005a2565b8114620006a357600080fd5b50565b61196980620006b66000396000f3fe608060405234801561001057600080fd5b506004361061009e5760003560e01c806397aba7f91161006657806397aba7f91461016d578063a0e67e2b1461019d578063a7bb5803146101bb578063fa540801146101ed578063fc0c546a1461021d5761009e565b8063025e7c27146100a35780631a3331d7146100d3578063238a4d1e146100f15780632f54bf6e146101215780638ad0380714610151575b600080fd5b6100bd60048036038101906100b89190611004565b61023b565b6040516100ca91906113e4565b60405180910390f35b6100db61027a565b6040516100e891906115b7565b60405180910390f35b61010b60048036038101906101069190610edf565b610280565b604051610118919061144a565b60405180910390f35b61013b60048036038101906101369190610eb6565b6102d0565b604051610148919061144a565b60405180910390f35b61016b60048036038101906101669190611056565b6102f0565b005b61018760048036038101906101829190610f6f565b610602565b60405161019491906113e4565b60405180910390f35b6101a5610671565b6040516101b29190611428565b60405180910390f35b6101d560048036038101906101d09190610fc3565b6106ff565b6040516101e493929190611480565b60405180910390f35b61020760048036038101906102029190610f46565b610767565b6040516102149190611465565b60405180910390f35b610225610797565b60405161023291906114fc565b60405180910390f35b6003818154811061024b57600080fd5b906000526020600020016000915054906101000a900473ffffffffffffffffffffffffffffffffffffffff1681565b60015481565b60008061028c84610767565b90508473ffffffffffffffffffffffffffffffffffffffff166102af8285610602565b73ffffffffffffffffffffffffffffffffffffffff16149150509392505050565b60026020528060005260406000206000915054906101000a900460ff1681565b600260003373ffffffffffffffffffffffffffffffffffffffff1673ffffffffffffffffffffffffffffffffffffffff16815260200190815260200160002060009054906101000a900460ff1661037c576040517f08c379a000000000000000000000000000000000000000000000000000000000815260040161037390611537565b60405180910390fd5b60015486146103c0576040517f08c379a00000000000000000000000000000000000000000000000000000000081526004016103b790611577565b60405180910390fd5b60006104326003600081548110610400577f4e487b7100000000000000000000000000000000000000000000000000000000600052603260045260246000fd5b9060005260206000200160009054906101000a900473ffffffffffffffffffffffffffffffffffffffff168785610280565b90506104a46003600081548110610472577f4e487b7100000000000000000000000000000000000000000000000000000000600052603260045260246000fd5b9060005260206000200160009054906101000a900473ffffffffffffffffffffffffffffffffffffffff168785610280565b6104e3576040517f08c379a00000000000000000000000000000000000000000000000000000000081526004016104da90611517565b60405180910390fd5b6105536003600181548110610521577f4e487b7100000000000000000000000000000000000000000000000000000000600052603260045260246000fd5b9060005260206000200160009054906101000a900473ffffffffffffffffffffffffffffffffffffffff168784610280565b610592576040517f08c379a000000000000000000000000000000000000000000000000000000000815260040161058990611557565b60405180910390fd5b600160008154809291906105a59061182c565b91905055506105b485856107bb565b7f452cad1c04a5cf70d24f79ae3bd476869c135e3c84e17f1a8b6e1ccc40cb02b087878787878733426040516105f19897969594939291906115d2565b60405180910390a150505050505050565b600080600080610611856106ff565b9250925092506001868285856040516000815260200160405260405161063a94939291906114b7565b6020604051602081039080840390855afa15801561065c573d6000803e3d6000fd5b50505060206040510351935050505092915050565b606060038054806020026020016040519081016040528092919081815260200182805480156106f557602002820191906000526020600020905b8160009054906101000a900473ffffffffffffffffffffffffffffffffffffffff1673ffffffffffffffffffffffffffffffffffffffff16815260200190600101908083116106ab575b5050505050905090565b60008060006041845114610748576040517f08c379a000000000000000000000000000000000000000000000000000000000815260040161073f90611597565b60405180910390fd5b6020840151925060408401519150606084015160001a90509193909250565b60008160405160200161077a91906113be565b604051602081830303815290604052805190602001209050919050565b60008054906101000a900473ffffffffffffffffffffffffffffffffffffffff1681565b60008060009054906101000a900473ffffffffffffffffffffffffffffffffffffffff1673ffffffffffffffffffffffffffffffffffffffff166370a082316003600081548110610835577f4e487b7100000000000000000000000000000000000000000000000000000000600052603260045260246000fd5b9060005260206000200160009054906101000a900473ffffffffffffffffffffffffffffffffffffffff166040518263ffffffff1660e01b815260040161087c91906113e4565b60206040518083038186803b15801561089457600080fd5b505afa1580156108a8573d6000803e3d6000fd5b505050506040513d601f19601f820116820180604052508101906108cc919061102d565b905060008060009054906101000a900473ffffffffffffffffffffffffffffffffffffffff1673ffffffffffffffffffffffffffffffffffffffff166370a082316003600181548110610948577f4e487b7100000000000000000000000000000000000000000000000000000000600052603260045260246000fd5b9060005260206000200160009054906101000a900473ffffffffffffffffffffffffffffffffffffffff166040518263ffffffff1660e01b815260040161098f91906113e4565b60206040518083038186803b1580156109a757600080fd5b505afa1580156109bb573d6000803e3d6000fd5b505050506040513d601f19601f820116820180604052508101906109df919061102d565b9050838214610bcd5760008054906101000a900473ffffffffffffffffffffffffffffffffffffffff1673ffffffffffffffffffffffffffffffffffffffff16639dc29fac6003600081548110610a5f577f4e487b7100000000000000000000000000000000000000000000000000000000600052603260045260246000fd5b9060005260206000200160009054906101000a900473ffffffffffffffffffffffffffffffffffffffff16846040518363ffffffff1660e01b8152600401610aa89291906113ff565b600060405180830381600087803b158015610ac257600080fd5b505af1158015610ad6573d6000803e3d6000fd5b5050505060008054906101000a900473ffffffffffffffffffffffffffffffffffffffff1673ffffffffffffffffffffffffffffffffffffffff166340c10f196003600081548110610b51577f4e487b7100000000000000000000000000000000000000000000000000000000600052603260045260246000fd5b9060005260206000200160009054906101000a900473ffffffffffffffffffffffffffffffffffffffff16866040518363ffffffff1660e01b8152600401610b9a9291906113ff565b600060405180830381600087803b158015610bb457600080fd5b505af1158015610bc8573d6000803e3d6000fd5b505050505b828114610db95760008054906101000a900473ffffffffffffffffffffffffffffffffffffffff1673ffffffffffffffffffffffffffffffffffffffff16639dc29fac6003600181548110610c4b577f4e487b7100000000000000000000000000000000000000000000000000000000600052603260045260246000fd5b9060005260206000200160009054906101000a900473ffffffffffffffffffffffffffffffffffffffff16836040518363ffffffff1660e01b8152600401610c949291906113ff565b600060405180830381600087803b158015610cae57600080fd5b505af1158015610cc2573d6000803e3d6000fd5b5050505060008054906101000a900473ffffffffffffffffffffffffffffffffffffffff1673ffffffffffffffffffffffffffffffffffffffff166340c10f196003600181548110610d3d577f4e487b7100000000000000000000000000000000000000000000000000000000600052603260045260246000fd5b9060005260206000200160009054906101000a900473ffffffffffffffffffffffffffffffffffffffff16856040518363ffffffff1660e01b8152600401610d869291906113ff565b600060405180830381600087803b158015610da057600080fd5b505af1158015610db4573d6000803e3d6000fd5b505050505b7fc8a7756b073abfbec76a8a2a511ca516f22b72200b95c2c67382516801860db0848442604051610dec9392919061165e565b60405180910390a150505050565b6000610e0d610e08846116c6565b611695565b905082815260208101848484011115610e2557600080fd5b610e308482856117ea565b509392505050565b600081359050610e47816118ee565b92915050565b600081359050610e5c81611905565b92915050565b600082601f830112610e7357600080fd5b8135610e83848260208601610dfa565b91505092915050565b600081359050610e9b8161191c565b92915050565b600081519050610eb08161191c565b92915050565b600060208284031215610ec857600080fd5b6000610ed684828501610e38565b91505092915050565b600080600060608486031215610ef457600080fd5b6000610f0286828701610e38565b9350506020610f1386828701610e4d565b925050604084013567ffffffffffffffff811115610f3057600080fd5b610f3c86828701610e62565b9150509250925092565b600060208284031215610f5857600080fd5b6000610f6684828501610e4d565b91505092915050565b60008060408385031215610f8257600080fd5b6000610f9085828601610e4d565b925050602083013567ffffffffffffffff811115610fad57600080fd5b610fb985828601610e62565b9150509250929050565b600060208284031215610fd557600080fd5b600082013567ffffffffffffffff811115610fef57600080fd5b610ffb84828501610e62565b91505092915050565b60006020828403121561101657600080fd5b600061102484828501610e8c565b91505092915050565b60006020828403121561103f57600080fd5b600061104d84828501610ea1565b91505092915050565b60008060008060008060c0878903121561106f57600080fd5b600061107d89828a01610e8c565b965050602061108e89828a01610e4d565b955050604061109f89828a01610e8c565b94505060606110b089828a01610e8c565b935050608087013567ffffffffffffffff8111156110cd57600080fd5b6110d989828a01610e62565b92505060a087013567ffffffffffffffff8111156110f657600080fd5b61110289828a01610e62565b9150509295509295509295565b600061111b8383611127565b60208301905092915050565b61113081611767565b82525050565b61113f81611767565b82525050565b600061115082611706565b61115a8185611729565b9350611165836116f6565b8060005b8381101561119657815161117d888261110f565b97506111888361171c565b925050600181019050611169565b5085935050505092915050565b6111ac81611779565b82525050565b6111bb81611785565b82525050565b6111d26111cd82611785565b611875565b82525050565b60006111e382611711565b6111ed818561173a565b93506111fd8185602086016117f9565b611206816118dd565b840191505092915050565b61121a816117c6565b82525050565b600061122d601c8361175c565b91507f19457468657265756d205369676e6564204d6573736167653a0a3332000000006000830152601c82019050919050565b600061126d601d8361174b565b91507f77726f6e67207369676e61747572652066726f6d207369676e657220310000006000830152602082019050919050565b60006112ad60168361174b565b91507f53656e646572206973206e6f7420616e206f776e6572000000000000000000006000830152602082019050919050565b60006112ed601d8361174b565b91507f77726f6e67207369676e61747572652066726f6d207369676e657220320000006000830152602082019050919050565b600061132d60198361174b565b91507f496e76616c6964207472616e73616374696f6e206e6f6e6365000000000000006000830152602082019050919050565b600061136d60188361174b565b91507f696e76616c6964207369676e6174757265206c656e67746800000000000000006000830152602082019050919050565b6113a9816117af565b82525050565b6113b8816117b9565b82525050565b60006113c982611220565b91506113d582846111c1565b60208201915081905092915050565b60006020820190506113f96000830184611136565b92915050565b60006040820190506114146000830185611136565b61142160208301846113a0565b9392505050565b600060208201905081810360008301526114428184611145565b905092915050565b600060208201905061145f60008301846111a3565b92915050565b600060208201905061147a60008301846111b2565b92915050565b600060608201905061149560008301866111b2565b6114a260208301856111b2565b6114af60408301846113af565b949350505050565b60006080820190506114cc60008301876111b2565b6114d960208301866113af565b6114e660408301856111b2565b6114f360608301846111b2565b95945050505050565b60006020820190506115116000830184611211565b92915050565b6000602082019050818103600083015261153081611260565b9050919050565b60006020820190508181036000830152611550816112a0565b9050919050565b60006020820190508181036000830152611570816112e0565b9050919050565b6000602082019050818103600083015261159081611320565b9050919050565b600060208201905081810360008301526115b081611360565b9050919050565b60006020820190506115cc60008301846113a0565b92915050565b6000610100820190506115e8600083018b6113a0565b6115f5602083018a6111b2565b61160260408301896113a0565b61160f60608301886113a0565b818103608083015261162181876111d8565b905081810360a083015261163581866111d8565b905061164460c0830185611136565b61165160e08301846113a0565b9998505050505050505050565b600060608201905061167360008301866113a0565b61168060208301856113a0565b61168d60408301846113a0565b949350505050565b6000604051905081810181811067ffffffffffffffff821117156116bc576116bb6118ae565b5b8060405250919050565b600067ffffffffffffffff8211156116e1576116e06118ae565b5b601f19601f8301169050602081019050919050565b6000819050602082019050919050565b600081519050919050565b600081519050919050565b6000602082019050919050565b600082825260208201905092915050565b600082825260208201905092915050565b600082825260208201905092915050565b600081905092915050565b60006117728261178f565b9050919050565b60008115159050919050565b6000819050919050565b600073ffffffffffffffffffffffffffffffffffffffff82169050919050565b6000819050919050565b600060ff82169050919050565b60006117d1826117d8565b9050919050565b60006117e38261178f565b9050919050565b82818337600083830152505050565b60005b838110156118175780820151818401526020810190506117fc565b83811115611826576000848401525b50505050565b6000611837826117af565b91507fffffffffffffffffffffffffffffffffffffffffffffffffffffffffffffffff82141561186a5761186961187f565b5b600182019050919050565b6000819050919050565b7f4e487b7100000000000000000000000000000000000000000000000000000000600052601160045260246000fd5b7f4e487b7100000000000000000000000000000000000000000000000000000000600052604160045260246000fd5b6000601f19601f8301169050919050565b6118f781611767565b811461190257600080fd5b50565b61190e81611785565b811461191957600080fd5b50565b611925816117af565b811461193057600080fd5b5056fea2646970667358221220ea8589a2423f53cd66c6d2eed256fc3b10d91a3a8a29eb4fea8d443c959a0d8964736f6c63430008000033",
  "immutableReferences": {},
  "source": "// SPDX-License-Identifier: MIT\n\npragma solidity ^0.8.0;\n\nimport './interfaces/IToken.sol';\nimport '@openzeppelin/contracts/utils/cryptography/ECDSA.sol';\n\n\n\n\ncontract Channel  {\n    using ECDSA for bytes32;\n\n\n    IToken public token;\n\n    uint public processedNonces;\n\n    mapping(address => bool) public isOwner;\n\n\n    address[] public owners;\n\n    event UpdateBalance(uint firstOwnerBalance, uint secondOwnerBalance, uint timestamp);\n    event Debug(bytes32 byte1, bytes32 byte2, address bool1, uint timestamp);\n\n    event VerifiedSignatures(uint nonce, bytes32 messageHash, uint firstOwnerBalance, uint secondOwnerBalance, bytes firstOwnerSignature, bytes secondOwnerSignature, address sender, uint timestamp);\n\n\n    constructor(address _token, address[] memory _owners) {\n\n        require(_owners.length > 0, \"owners required\");\n       \n        for (uint i = 0; i < _owners.length; i++) {\n            address owner = _owners[i];\n\n            require(owner != address(0), \"invalid owner\");\n            require(!isOwner[owner], \"owner not unique\");\n\n            isOwner[owner] = true;\n            owners.push(owner);\n\n        }\n\n        token = IToken(_token);\n\n    }\n\n    function submitTx(uint _nonce, bytes32 _messageHash, uint _balance1, uint _balance2, bytes memory _signature1, bytes memory _signature2) \n        public \n    {\n        require(isOwner[msg.sender], \"Sender is not an owner\");\n\n        require(_nonce == processedNonces, 'Invalid transaction nonce');\n\n\n        bool a = isValidSignature(owners[0], _messageHash, _signature1);\n\n\n        require(isValidSignature(owners[0], _messageHash, _signature1) , 'wrong signature from signer 1');\n        require(isValidSignature(owners[1], _messageHash, _signature2) , 'wrong signature from signer 2');\n\n\n        processedNonces++;\n\n        updateBalances(_balance1, _balance2);\n\n        emit VerifiedSignatures(_nonce, _messageHash, _balance1, _balance2, _signature1, _signature2, msg.sender, block.timestamp);\n\n\n    }\n\n\n    function getEthSignedMessageHash(bytes32 _messageHash)\n        public\n        pure\n        returns (bytes32)\n    {\n        /*\n        Signature is produced by signing a keccak256 hash with the following format:\n        \"\\x19Ethereum Signed Message\\n\" + len(msg) + msg\n        */\n        return\n            keccak256(\n                abi.encodePacked(\"\\x19Ethereum Signed Message:\\n32\", _messageHash)\n            );\n    }\n\n    /* 4. Verify signature\n    signer = 0xB273216C05A8c0D4F0a4Dd0d7Bae1D2EfFE636dd\n    to = 0x14723A09ACff6D2A60DcdF7aA4AFf308FDDC160C\n    amount = 123\n    message = \"coffee and donuts\"\n    nonce = 1\n    signature =\n        0x993dab3dd91f5c6dc28e17439be475478f5635c92a56e17e82349d3fb2f166196f466c0b4e0c146f285204f0dcb13e5ae67bc33f4b888ec32dfe0a063e8f3f781b\n    */\n    function isValidSignature(\n        address _signer,\n        bytes32 _messageHash,\n        bytes memory _signature\n    ) public pure returns (bool) {\n        bytes32 ethSignedMessageHash = getEthSignedMessageHash(_messageHash);\n\n        return recoverSigner(ethSignedMessageHash, _signature) == _signer;\n    }\n\n    function recoverSigner(bytes32 _ethSignedMessageHash, bytes memory _signature)\n        public\n        pure\n        returns (address)\n    {\n        (bytes32 r, bytes32 s, uint8 v) = splitSignature(_signature);\n\n        return ecrecover(_ethSignedMessageHash, v, r, s);\n    }\n\n    function splitSignature(bytes memory sig)\n        public\n        pure\n        returns (\n            bytes32 r,\n            bytes32 s,\n            uint8 v\n        )\n    {\n        require(sig.length == 65, \"invalid signature length\");\n\n        assembly {\n            /*\n            First 32 bytes stores the length of the signature\n\n            add(sig, 32) = pointer of sig + 32\n            effectively, skips first 32 bytes of signature\n\n            mload(p) loads next 32 bytes starting at the memory address p into memory\n            */\n\n            // first 32 bytes, after the length prefix\n            r := mload(add(sig, 32))\n            // second 32 bytes\n            s := mload(add(sig, 64))\n            // final byte (first byte of the next 32 bytes)\n            v := byte(0, mload(add(sig, 96)))\n        }\n\n        // implicitly return (r, s, v)\n    }\n\n\n    function updateBalances(uint _balance1, uint _balance2) \n        internal\n    {\n\n        uint firstOwnerBalance = token.balanceOf(owners[0]);\n        uint secondOwnerBalance = token.balanceOf(owners[1]);\n\n        if (firstOwnerBalance != _balance1) {\n            token.burn(owners[0], firstOwnerBalance);\n            token.mint(owners[0], _balance1);\n        } \n\n        if (secondOwnerBalance != _balance2) {\n            token.burn(owners[1], secondOwnerBalance);\n            token.mint(owners[1], _balance2);\n        } \n\n        emit UpdateBalance(_balance1, _balance2, block.timestamp);\n        \n    }\n\n    function getOwners() public view returns (address[] memory) {\n        return owners;\n    }\n\n\n\n}",
  "sourcePath": "/home/petermunachi/Documents/Projects/dd-task/server/contracts/Channel.sol",
  "compiler": {
    "name": "solc",
    "version": "0.8.0+commit.c7dfd78e.Emscripten.clang"
  },
  "schemaVersion": "3.4.3",
  "updatedAt": "2021-11-03T14:57:24.258Z",
  "networkType": "ethereum",
  "devdoc": {
    "kind": "dev",
    "methods": {},
    "version": 1
  },
  "userdoc": {
    "kind": "user",
    "methods": {},
    "version": 1
  }
}