{
  "contractName": "Channel",
  "abi": [
    {
      "inputs": [
        {
          "internalType": "address",
          "name": "_token",
          "type": "address"
        },
        {
          "internalType": "address[]",
          "name": "_owners",
          "type": "address[]"
        }
      ],
      "stateMutability": "nonpayable",
      "type": "constructor"
    },
    {
      "anonymous": false,
      "inputs": [
        {
          "indexed": false,
          "internalType": "uint256",
          "name": "firstOwnerBalance",
          "type": "uint256"
        },
        {
          "indexed": false,
          "internalType": "uint256",
          "name": "secondOwnerBalance",
          "type": "uint256"
        },
        {
          "indexed": false,
          "internalType": "uint256",
          "name": "timestamp",
          "type": "uint256"
        }
      ],
      "name": "UpdateBalance",
      "type": "event"
    },
    {
      "anonymous": false,
      "inputs": [
        {
          "indexed": false,
          "internalType": "uint256",
          "name": "nonce",
          "type": "uint256"
        },
        {
          "indexed": false,
          "internalType": "bytes32",
          "name": "messageHash",
          "type": "bytes32"
        },
        {
          "indexed": false,
          "internalType": "uint256",
          "name": "firstOwnerBalance",
          "type": "uint256"
        },
        {
          "indexed": false,
          "internalType": "uint256",
          "name": "secondOwnerBalance",
          "type": "uint256"
        },
        {
          "indexed": false,
          "internalType": "bytes",
          "name": "firstOwnerSignature",
          "type": "bytes"
        },
        {
          "indexed": false,
          "internalType": "bytes",
          "name": "secondOwnerSignature",
          "type": "bytes"
        },
        {
          "indexed": false,
          "internalType": "address",
          "name": "sender",
          "type": "address"
        },
        {
          "indexed": false,
          "internalType": "uint256",
          "name": "timestamp",
          "type": "uint256"
        }
      ],
      "name": "VerifiedSignatures",
      "type": "event"
    },
    {
      "inputs": [
        {
          "internalType": "address",
          "name": "",
          "type": "address"
        }
      ],
      "name": "isOwner",
      "outputs": [
        {
          "internalType": "bool",
          "name": "",
          "type": "bool"
        }
      ],
      "stateMutability": "view",
      "type": "function",
      "constant": true
    },
    {
      "inputs": [
        {
          "internalType": "uint256",
          "name": "",
          "type": "uint256"
        }
      ],
      "name": "owners",
      "outputs": [
        {
          "internalType": "address",
          "name": "",
          "type": "address"
        }
      ],
      "stateMutability": "view",
      "type": "function",
      "constant": true
    },
    {
      "inputs": [],
      "name": "processedNonces",
      "outputs": [
        {
          "internalType": "uint256",
          "name": "",
          "type": "uint256"
        }
      ],
      "stateMutability": "view",
      "type": "function",
      "constant": true
    },
    {
      "inputs": [],
      "name": "token",
      "outputs": [
        {
          "internalType": "contract IToken",
          "name": "",
          "type": "address"
        }
      ],
      "stateMutability": "view",
      "type": "function",
      "constant": true
    },
    {
      "inputs": [
        {
          "internalType": "uint256",
          "name": "_nonce",
          "type": "uint256"
        },
        {
          "internalType": "bytes32",
          "name": "_messageHash",
          "type": "bytes32"
        },
        {
          "internalType": "uint256",
          "name": "_balance1",
          "type": "uint256"
        },
        {
          "internalType": "uint256",
          "name": "_balance2",
          "type": "uint256"
        },
        {
          "internalType": "bytes",
          "name": "_signature1",
          "type": "bytes"
        },
        {
          "internalType": "bytes",
          "name": "_signature2",
          "type": "bytes"
        }
      ],
      "name": "submitTx",
      "outputs": [],
      "stateMutability": "nonpayable",
      "type": "function"
    },
    {
      "inputs": [
        {
          "internalType": "bytes32",
          "name": "_messageHash",
          "type": "bytes32"
        }
      ],
      "name": "getEthSignedMessageHash",
      "outputs": [
        {
          "internalType": "bytes32",
          "name": "",
          "type": "bytes32"
        }
      ],
      "stateMutability": "pure",
      "type": "function",
      "constant": true
    },
    {
      "inputs": [
        {
          "internalType": "address",
          "name": "_signer",
          "type": "address"
        },
        {
          "internalType": "bytes32",
          "name": "_messageHash",
          "type": "bytes32"
        },
        {
          "internalType": "bytes",
          "name": "_signature",
          "type": "bytes"
        }
      ],
      "name": "isValidSignature",
      "outputs": [
        {
          "internalType": "bool",
          "name": "",
          "type": "bool"
        }
      ],
      "stateMutability": "pure",
      "type": "function",
      "constant": true
    },
    {
      "inputs": [
        {
          "internalType": "bytes32",
          "name": "_ethSignedMessageHash",
          "type": "bytes32"
        },
        {
          "internalType": "bytes",
          "name": "_signature",
          "type": "bytes"
        }
      ],
      "name": "recoverSigner",
      "outputs": [
        {
          "internalType": "address",
          "name": "",
          "type": "address"
        }
      ],
      "stateMutability": "pure",
      "type": "function",
      "constant": true
    },
    {
      "inputs": [
        {
          "internalType": "bytes",
          "name": "sig",
          "type": "bytes"
        }
      ],
      "name": "splitSignature",
      "outputs": [
        {
          "internalType": "bytes32",
          "name": "r",
          "type": "bytes32"
        },
        {
          "internalType": "bytes32",
          "name": "s",
          "type": "bytes32"
        },
        {
          "internalType": "uint8",
          "name": "v",
          "type": "uint8"
        }
      ],
      "stateMutability": "pure",
      "type": "function",
      "constant": true
    },
    {
      "inputs": [],
      "name": "getOwners",
      "outputs": [
        {
          "internalType": "address[]",
          "name": "",
          "type": "address[]"
        }
      ],
      "stateMutability": "view",
      "type": "function",
      "constant": true
    }
  ],
  "bytecode": "0x60806040523480156200001157600080fd5b5060405162001faa38038062001faa8339818101604052810190620000379190620003a8565b60008151116200007e576040517f08c379a00000000000000000000000000000000000000000000000000000000081526004016200007590620004ea565b60405180910390fd5b60005b8151811015620002a6576000828281518110620000c7577f4e487b7100000000000000000000000000000000000000000000000000000000600052603260045260246000fd5b60200260200101519050600073ffffffffffffffffffffffffffffffffffffffff168173ffffffffffffffffffffffffffffffffffffffff16141562000144576040517f08c379a00000000000000000000000000000000000000000000000000000000081526004016200013b906200050c565b60405180910390fd5b600260008273ffffffffffffffffffffffffffffffffffffffff1673ffffffffffffffffffffffffffffffffffffffff16815260200190815260200160002060009054906101000a900460ff1615620001d4576040517f08c379a0000000000000000000000000000000000000000000000000000000008152600401620001cb90620004c8565b60405180910390fd5b6001600260008373ffffffffffffffffffffffffffffffffffffffff1673ffffffffffffffffffffffffffffffffffffffff16815260200190815260200160002060006101000a81548160ff0219169083151502179055506003819080600181540180825580915050600190039060005260206000200160009091909190916101000a81548173ffffffffffffffffffffffffffffffffffffffff021916908373ffffffffffffffffffffffffffffffffffffffff1602179055505080806200029d90620005e0565b91505062000081565b50816000806101000a81548173ffffffffffffffffffffffffffffffffffffffff021916908373ffffffffffffffffffffffffffffffffffffffff1602179055505050620006a6565b600062000306620003008462000562565b6200052e565b905080838252602082019050828560208602820111156200032657600080fd5b60005b858110156200035a57816200033f888262000364565b84526020840193506020830192505060018101905062000329565b5050509392505050565b60008151905062000375816200068c565b92915050565b600082601f8301126200038d57600080fd5b81516200039f848260208601620002ef565b91505092915050565b60008060408385031215620003bc57600080fd5b6000620003cc8582860162000364565b925050602083015167ffffffffffffffff811115620003ea57600080fd5b620003f8858286016200037b565b9150509250929050565b60006200041160108362000591565b91507f6f776e6572206e6f7420756e69717565000000000000000000000000000000006000830152602082019050919050565b600062000453600f8362000591565b91507f6f776e65727320726571756972656400000000000000000000000000000000006000830152602082019050919050565b600062000495600d8362000591565b91507f696e76616c6964206f776e6572000000000000000000000000000000000000006000830152602082019050919050565b60006020820190508181036000830152620004e38162000402565b9050919050565b60006020820190508181036000830152620005058162000444565b9050919050565b60006020820190508181036000830152620005278162000486565b9050919050565b6000604051905081810181811067ffffffffffffffff821117156200055857620005576200065d565b5b8060405250919050565b600067ffffffffffffffff82111562000580576200057f6200065d565b5b602082029050602081019050919050565b600082825260208201905092915050565b6000620005af82620005b6565b9050919050565b600073ffffffffffffffffffffffffffffffffffffffff82169050919050565b6000819050919050565b6000620005ed82620005d6565b91507fffffffffffffffffffffffffffffffffffffffffffffffffffffffffffffffff8214156200062357620006226200062e565b5b600182019050919050565b7f4e487b7100000000000000000000000000000000000000000000000000000000600052601160045260246000fd5b7f4e487b7100000000000000000000000000000000000000000000000000000000600052604160045260246000fd5b6200069781620005a2565b8114620006a357600080fd5b50565b6118f480620006b66000396000f3fe608060405234801561001057600080fd5b506004361061009e5760003560e01c806397aba7f91161006657806397aba7f91461016d578063a0e67e2b1461019d578063a7bb5803146101bb578063fa540801146101ed578063fc0c546a1461021d5761009e565b8063025e7c27146100a35780631a3331d7146100d3578063238a4d1e146100f15780632f54bf6e146101215780638ad0380714610151575b600080fd5b6100bd60048036038101906100b89190610f8f565b61023b565b6040516100ca919061136f565b60405180910390f35b6100db61027a565b6040516100e89190611542565b60405180910390f35b61010b60048036038101906101069190610e6a565b610280565b60405161011891906113d5565b60405180910390f35b61013b60048036038101906101369190610e41565b6102d0565b60405161014891906113d5565b60405180910390f35b61016b60048036038101906101669190610fe1565b6102f0565b005b61018760048036038101906101829190610efa565b61058d565b604051610194919061136f565b60405180910390f35b6101a56105fc565b6040516101b291906113b3565b60405180910390f35b6101d560048036038101906101d09190610f4e565b61068a565b6040516101e49392919061140b565b60405180910390f35b61020760048036038101906102029190610ed1565b6106f2565b60405161021491906113f0565b60405180910390f35b610225610722565b6040516102329190611487565b60405180910390f35b6003818154811061024b57600080fd5b906000526020600020016000915054906101000a900473ffffffffffffffffffffffffffffffffffffffff1681565b60015481565b60008061028c846106f2565b90508473ffffffffffffffffffffffffffffffffffffffff166102af828561058d565b73ffffffffffffffffffffffffffffffffffffffff16149150509392505050565b60026020528060005260406000206000915054906101000a900460ff1681565b600260003373ffffffffffffffffffffffffffffffffffffffff1673ffffffffffffffffffffffffffffffffffffffff16815260200190815260200160002060009054906101000a900460ff1661037c576040517f08c379a0000000000000000000000000000000000000000000000000000000008152600401610373906114c2565b60405180910390fd5b60015486146103c0576040517f08c379a00000000000000000000000000000000000000000000000000000000081526004016103b790611502565b60405180910390fd5b61043060036000815481106103fe577f4e487b7100000000000000000000000000000000000000000000000000000000600052603260045260246000fd5b9060005260206000200160009054906101000a900473ffffffffffffffffffffffffffffffffffffffff168684610280565b61046f576040517f08c379a0000000000000000000000000000000000000000000000000000000008152600401610466906114a2565b60405180910390fd5b6104df60036001815481106104ad577f4e487b7100000000000000000000000000000000000000000000000000000000600052603260045260246000fd5b9060005260206000200160009054906101000a900473ffffffffffffffffffffffffffffffffffffffff168683610280565b61051e576040517f08c379a0000000000000000000000000000000000000000000000000000000008152600401610515906114e2565b60405180910390fd5b60016000815480929190610531906117b7565b91905055506105408484610746565b7f452cad1c04a5cf70d24f79ae3bd476869c135e3c84e17f1a8b6e1ccc40cb02b0868686868686334260405161057d98979695949392919061155d565b60405180910390a1505050505050565b60008060008061059c8561068a565b925092509250600186828585604051600081526020016040526040516105c59493929190611442565b6020604051602081039080840390855afa1580156105e7573d6000803e3d6000fd5b50505060206040510351935050505092915050565b6060600380548060200260200160405190810160405280929190818152602001828054801561068057602002820191906000526020600020905b8160009054906101000a900473ffffffffffffffffffffffffffffffffffffffff1673ffffffffffffffffffffffffffffffffffffffff1681526020019060010190808311610636575b5050505050905090565b600080600060418451146106d3576040517f08c379a00000000000000000000000000000000000000000000000000000000081526004016106ca90611522565b60405180910390fd5b6020840151925060408401519150606084015160001a90509193909250565b6000816040516020016107059190611349565b604051602081830303815290604052805190602001209050919050565b60008054906101000a900473ffffffffffffffffffffffffffffffffffffffff1681565b60008060009054906101000a900473ffffffffffffffffffffffffffffffffffffffff1673ffffffffffffffffffffffffffffffffffffffff166370a0823160036000815481106107c0577f4e487b7100000000000000000000000000000000000000000000000000000000600052603260045260246000fd5b9060005260206000200160009054906101000a900473ffffffffffffffffffffffffffffffffffffffff166040518263ffffffff1660e01b8152600401610807919061136f565b60206040518083038186803b15801561081f57600080fd5b505afa158015610833573d6000803e3d6000fd5b505050506040513d601f19601f820116820180604052508101906108579190610fb8565b905060008060009054906101000a900473ffffffffffffffffffffffffffffffffffffffff1673ffffffffffffffffffffffffffffffffffffffff166370a0823160036001815481106108d3577f4e487b7100000000000000000000000000000000000000000000000000000000600052603260045260246000fd5b9060005260206000200160009054906101000a900473ffffffffffffffffffffffffffffffffffffffff166040518263ffffffff1660e01b815260040161091a919061136f565b60206040518083038186803b15801561093257600080fd5b505afa158015610946573d6000803e3d6000fd5b505050506040513d601f19601f8201168201806040525081019061096a9190610fb8565b9050838214610b585760008054906101000a900473ffffffffffffffffffffffffffffffffffffffff1673ffffffffffffffffffffffffffffffffffffffff16639dc29fac60036000815481106109ea577f4e487b7100000000000000000000000000000000000000000000000000000000600052603260045260246000fd5b9060005260206000200160009054906101000a900473ffffffffffffffffffffffffffffffffffffffff16846040518363ffffffff1660e01b8152600401610a3392919061138a565b600060405180830381600087803b158015610a4d57600080fd5b505af1158015610a61573d6000803e3d6000fd5b5050505060008054906101000a900473ffffffffffffffffffffffffffffffffffffffff1673ffffffffffffffffffffffffffffffffffffffff166340c10f196003600081548110610adc577f4e487b7100000000000000000000000000000000000000000000000000000000600052603260045260246000fd5b9060005260206000200160009054906101000a900473ffffffffffffffffffffffffffffffffffffffff16866040518363ffffffff1660e01b8152600401610b2592919061138a565b600060405180830381600087803b158015610b3f57600080fd5b505af1158015610b53573d6000803e3d6000fd5b505050505b828114610d445760008054906101000a900473ffffffffffffffffffffffffffffffffffffffff1673ffffffffffffffffffffffffffffffffffffffff16639dc29fac6003600181548110610bd6577f4e487b7100000000000000000000000000000000000000000000000000000000600052603260045260246000fd5b9060005260206000200160009054906101000a900473ffffffffffffffffffffffffffffffffffffffff16836040518363ffffffff1660e01b8152600401610c1f92919061138a565b600060405180830381600087803b158015610c3957600080fd5b505af1158015610c4d573d6000803e3d6000fd5b5050505060008054906101000a900473ffffffffffffffffffffffffffffffffffffffff1673ffffffffffffffffffffffffffffffffffffffff166340c10f196003600181548110610cc8577f4e487b7100000000000000000000000000000000000000000000000000000000600052603260045260246000fd5b9060005260206000200160009054906101000a900473ffffffffffffffffffffffffffffffffffffffff16856040518363ffffffff1660e01b8152600401610d1192919061138a565b600060405180830381600087803b158015610d2b57600080fd5b505af1158015610d3f573d6000803e3d6000fd5b505050505b7fc8a7756b073abfbec76a8a2a511ca516f22b72200b95c2c67382516801860db0848442604051610d77939291906115e9565b60405180910390a150505050565b6000610d98610d9384611651565b611620565b905082815260208101848484011115610db057600080fd5b610dbb848285611775565b509392505050565b600081359050610dd281611879565b92915050565b600081359050610de781611890565b92915050565b600082601f830112610dfe57600080fd5b8135610e0e848260208601610d85565b91505092915050565b600081359050610e26816118a7565b92915050565b600081519050610e3b816118a7565b92915050565b600060208284031215610e5357600080fd5b6000610e6184828501610dc3565b91505092915050565b600080600060608486031215610e7f57600080fd5b6000610e8d86828701610dc3565b9350506020610e9e86828701610dd8565b925050604084013567ffffffffffffffff811115610ebb57600080fd5b610ec786828701610ded565b9150509250925092565b600060208284031215610ee357600080fd5b6000610ef184828501610dd8565b91505092915050565b60008060408385031215610f0d57600080fd5b6000610f1b85828601610dd8565b925050602083013567ffffffffffffffff811115610f3857600080fd5b610f4485828601610ded565b9150509250929050565b600060208284031215610f6057600080fd5b600082013567ffffffffffffffff811115610f7a57600080fd5b610f8684828501610ded565b91505092915050565b600060208284031215610fa157600080fd5b6000610faf84828501610e17565b91505092915050565b600060208284031215610fca57600080fd5b6000610fd884828501610e2c565b91505092915050565b60008060008060008060c08789031215610ffa57600080fd5b600061100889828a01610e17565b965050602061101989828a01610dd8565b955050604061102a89828a01610e17565b945050606061103b89828a01610e17565b935050608087013567ffffffffffffffff81111561105857600080fd5b61106489828a01610ded565b92505060a087013567ffffffffffffffff81111561108157600080fd5b61108d89828a01610ded565b9150509295509295509295565b60006110a683836110b2565b60208301905092915050565b6110bb816116f2565b82525050565b6110ca816116f2565b82525050565b60006110db82611691565b6110e581856116b4565b93506110f083611681565b8060005b83811015611121578151611108888261109a565b9750611113836116a7565b9250506001810190506110f4565b5085935050505092915050565b61113781611704565b82525050565b61114681611710565b82525050565b61115d61115882611710565b611800565b82525050565b600061116e8261169c565b61117881856116c5565b9350611188818560208601611784565b61119181611868565b840191505092915050565b6111a581611751565b82525050565b60006111b8601c836116e7565b91507f19457468657265756d205369676e6564204d6573736167653a0a3332000000006000830152601c82019050919050565b60006111f8601d836116d6565b91507f77726f6e67207369676e61747572652066726f6d207369676e657220310000006000830152602082019050919050565b60006112386016836116d6565b91507f53656e646572206973206e6f7420616e206f776e6572000000000000000000006000830152602082019050919050565b6000611278601d836116d6565b91507f77726f6e67207369676e61747572652066726f6d207369676e657220320000006000830152602082019050919050565b60006112b86019836116d6565b91507f496e76616c6964207472616e73616374696f6e206e6f6e6365000000000000006000830152602082019050919050565b60006112f86018836116d6565b91507f696e76616c6964207369676e6174757265206c656e67746800000000000000006000830152602082019050919050565b6113348161173a565b82525050565b61134381611744565b82525050565b6000611354826111ab565b9150611360828461114c565b60208201915081905092915050565b600060208201905061138460008301846110c1565b92915050565b600060408201905061139f60008301856110c1565b6113ac602083018461132b565b9392505050565b600060208201905081810360008301526113cd81846110d0565b905092915050565b60006020820190506113ea600083018461112e565b92915050565b6000602082019050611405600083018461113d565b92915050565b6000606082019050611420600083018661113d565b61142d602083018561113d565b61143a604083018461133a565b949350505050565b6000608082019050611457600083018761113d565b611464602083018661133a565b611471604083018561113d565b61147e606083018461113d565b95945050505050565b600060208201905061149c600083018461119c565b92915050565b600060208201905081810360008301526114bb816111eb565b9050919050565b600060208201905081810360008301526114db8161122b565b9050919050565b600060208201905081810360008301526114fb8161126b565b9050919050565b6000602082019050818103600083015261151b816112ab565b9050919050565b6000602082019050818103600083015261153b816112eb565b9050919050565b6000602082019050611557600083018461132b565b92915050565b600061010082019050611573600083018b61132b565b611580602083018a61113d565b61158d604083018961132b565b61159a606083018861132b565b81810360808301526115ac8187611163565b905081810360a08301526115c08186611163565b90506115cf60c08301856110c1565b6115dc60e083018461132b565b9998505050505050505050565b60006060820190506115fe600083018661132b565b61160b602083018561132b565b611618604083018461132b565b949350505050565b6000604051905081810181811067ffffffffffffffff8211171561164757611646611839565b5b8060405250919050565b600067ffffffffffffffff82111561166c5761166b611839565b5b601f19601f8301169050602081019050919050565b6000819050602082019050919050565b600081519050919050565b600081519050919050565b6000602082019050919050565b600082825260208201905092915050565b600082825260208201905092915050565b600082825260208201905092915050565b600081905092915050565b60006116fd8261171a565b9050919050565b60008115159050919050565b6000819050919050565b600073ffffffffffffffffffffffffffffffffffffffff82169050919050565b6000819050919050565b600060ff82169050919050565b600061175c82611763565b9050919050565b600061176e8261171a565b9050919050565b82818337600083830152505050565b60005b838110156117a2578082015181840152602081019050611787565b838111156117b1576000848401525b50505050565b60006117c28261173a565b91507fffffffffffffffffffffffffffffffffffffffffffffffffffffffffffffffff8214156117f5576117f461180a565b5b600182019050919050565b6000819050919050565b7f4e487b7100000000000000000000000000000000000000000000000000000000600052601160045260246000fd5b7f4e487b7100000000000000000000000000000000000000000000000000000000600052604160045260246000fd5b6000601f19601f8301169050919050565b611882816116f2565b811461188d57600080fd5b50565b61189981611710565b81146118a457600080fd5b50565b6118b08161173a565b81146118bb57600080fd5b5056fea2646970667358221220838e5bee9ea062c7f2ed25d729b03db083d59f30e4ae4bb1522ea0af0eb1635964736f6c63430008000033",
  "immutableReferences": {},
  "source": "// SPDX-License-Identifier: MIT\n\npragma solidity ^0.8.0;\n\nimport './interfaces/IToken.sol';\nimport '@openzeppelin/contracts/utils/cryptography/ECDSA.sol';\n\n\n\n\ncontract Channel  {\n\n    IToken public token;\n\n    uint public processedNonces;\n\n    mapping(address => bool) public isOwner;\n\n    address[] public owners;\n\n    event UpdateBalance(uint firstOwnerBalance, uint secondOwnerBalance, uint timestamp);\n\n    event VerifiedSignatures(uint nonce, bytes32 messageHash, uint firstOwnerBalance, uint secondOwnerBalance, bytes firstOwnerSignature, bytes secondOwnerSignature, address sender, uint timestamp);\n\n\n    constructor(address _token, address[] memory _owners) {\n\n        require(_owners.length > 0, \"owners required\");\n       \n        for (uint i = 0; i < _owners.length; i++) {\n            address owner = _owners[i];\n\n            require(owner != address(0), \"invalid owner\");\n            require(!isOwner[owner], \"owner not unique\");\n\n            isOwner[owner] = true;\n            owners.push(owner);\n\n        }\n\n        token = IToken(_token);\n\n    }\n\n    function submitTx(uint _nonce, bytes32 _messageHash, uint _balance1, uint _balance2, bytes memory _signature1, bytes memory _signature2) \n        public \n    {\n        require(isOwner[msg.sender], \"Sender is not an owner\");\n\n        require(_nonce == processedNonces, 'Invalid transaction nonce');\n\n        require(isValidSignature(owners[0], _messageHash, _signature1) , 'wrong signature from signer 1');\n        require(isValidSignature(owners[1], _messageHash, _signature2) , 'wrong signature from signer 2');\n\n\n        processedNonces++;\n\n        updateBalances(_balance1, _balance2);\n\n        emit VerifiedSignatures(_nonce, _messageHash, _balance1, _balance2, _signature1, _signature2, msg.sender, block.timestamp);\n\n\n    }\n\n\n    function getEthSignedMessageHash(bytes32 _messageHash)\n        public\n        pure\n        returns (bytes32)\n    {\n        return\n            keccak256(\n                abi.encodePacked(\"\\x19Ethereum Signed Message:\\n32\", _messageHash)\n            );\n    }\n\n    function isValidSignature(\n        address _signer,\n        bytes32 _messageHash,\n        bytes memory _signature\n    ) public pure returns (bool) {\n        bytes32 ethSignedMessageHash = getEthSignedMessageHash(_messageHash);\n\n        return recoverSigner(ethSignedMessageHash, _signature) == _signer;\n    }\n\n    function recoverSigner(bytes32 _ethSignedMessageHash, bytes memory _signature)\n        public\n        pure\n        returns (address)\n    {\n        (bytes32 r, bytes32 s, uint8 v) = splitSignature(_signature);\n\n        return ecrecover(_ethSignedMessageHash, v, r, s);\n    }\n\n    function splitSignature(bytes memory sig)\n        public\n        pure\n        returns (\n            bytes32 r,\n            bytes32 s,\n            uint8 v\n        )\n    {\n        require(sig.length == 65, \"invalid signature length\");\n\n        assembly {\n\n            r := mload(add(sig, 32))\n            s := mload(add(sig, 64))\n            v := byte(0, mload(add(sig, 96)))\n        }\n\n    }\n\n\n    function updateBalances(uint _balance1, uint _balance2) \n        internal\n    {\n\n        uint firstOwnerBalance = token.balanceOf(owners[0]);\n        uint secondOwnerBalance = token.balanceOf(owners[1]);\n\n        if (firstOwnerBalance != _balance1) {\n            token.burn(owners[0], firstOwnerBalance);\n            token.mint(owners[0], _balance1);\n        } \n\n        if (secondOwnerBalance != _balance2) {\n            token.burn(owners[1], secondOwnerBalance);\n            token.mint(owners[1], _balance2);\n        } \n\n        emit UpdateBalance(_balance1, _balance2, block.timestamp);\n        \n    }\n\n    function getOwners() public view returns (address[] memory) {\n        return owners;\n    }\n\n\n\n}",
  "sourcePath": "/home/petermunachi/Documents/Projects/dd-task/server/contracts/Channel.sol",
  "compiler": {
    "name": "solc",
    "version": "0.8.0+commit.c7dfd78e.Emscripten.clang"
  },
  "schemaVersion": "3.4.3",
  "updatedAt": "2021-11-03T16:38:34.146Z",
  "networkType": "ethereum",
  "devdoc": {
    "kind": "dev",
    "methods": {},
    "version": 1
  },
  "userdoc": {
    "kind": "user",
    "methods": {},
    "version": 1
  }
}