{
  "contractName": "Token",
  "abi": [
    {
      "inputs": [
        {
          "internalType": "string",
          "name": "name",
          "type": "string"
        },
        {
          "internalType": "string",
          "name": "symbol",
          "type": "string"
        }
      ],
      "stateMutability": "nonpayable",
      "type": "constructor"
    },
    {
      "anonymous": false,
      "inputs": [
        {
          "indexed": false,
          "internalType": "address",
          "name": "admin",
          "type": "address"
        },
        {
          "indexed": false,
          "internalType": "uint256",
          "name": "time",
          "type": "uint256"
        },
        {
          "indexed": false,
          "internalType": "bool",
          "name": "active",
          "type": "bool"
        }
      ],
      "name": "Admins",
      "type": "event"
    },
    {
      "anonymous": false,
      "inputs": [
        {
          "indexed": true,
          "internalType": "address",
          "name": "owner",
          "type": "address"
        },
        {
          "indexed": true,
          "internalType": "address",
          "name": "spender",
          "type": "address"
        },
        {
          "indexed": false,
          "internalType": "uint256",
          "name": "value",
          "type": "uint256"
        }
      ],
      "name": "Approval",
      "type": "event"
    },
    {
      "anonymous": false,
      "inputs": [
        {
          "indexed": true,
          "internalType": "address",
          "name": "previousOwner",
          "type": "address"
        },
        {
          "indexed": true,
          "internalType": "address",
          "name": "newOwner",
          "type": "address"
        }
      ],
      "name": "OwnershipTransferred",
      "type": "event"
    },
    {
      "anonymous": false,
      "inputs": [
        {
          "indexed": true,
          "internalType": "address",
          "name": "from",
          "type": "address"
        },
        {
          "indexed": true,
          "internalType": "address",
          "name": "to",
          "type": "address"
        },
        {
          "indexed": false,
          "internalType": "uint256",
          "name": "value",
          "type": "uint256"
        }
      ],
      "name": "Transfer",
      "type": "event"
    },
    {
      "inputs": [
        {
          "internalType": "address",
          "name": "",
          "type": "address"
        }
      ],
      "name": "admins",
      "outputs": [
        {
          "internalType": "bool",
          "name": "",
          "type": "bool"
        }
      ],
      "stateMutability": "view",
      "type": "function",
      "constant": true
    },
    {
      "inputs": [
        {
          "internalType": "address",
          "name": "owner",
          "type": "address"
        },
        {
          "internalType": "address",
          "name": "spender",
          "type": "address"
        }
      ],
      "name": "allowance",
      "outputs": [
        {
          "internalType": "uint256",
          "name": "",
          "type": "uint256"
        }
      ],
      "stateMutability": "view",
      "type": "function",
      "constant": true
    },
    {
      "inputs": [
        {
          "internalType": "address",
          "name": "spender",
          "type": "address"
        },
        {
          "internalType": "uint256",
          "name": "amount",
          "type": "uint256"
        }
      ],
      "name": "approve",
      "outputs": [
        {
          "internalType": "bool",
          "name": "",
          "type": "bool"
        }
      ],
      "stateMutability": "nonpayable",
      "type": "function"
    },
    {
      "inputs": [
        {
          "internalType": "address",
          "name": "account",
          "type": "address"
        }
      ],
      "name": "balanceOf",
      "outputs": [
        {
          "internalType": "uint256",
          "name": "",
          "type": "uint256"
        }
      ],
      "stateMutability": "view",
      "type": "function",
      "constant": true
    },
    {
      "inputs": [],
      "name": "decimals",
      "outputs": [
        {
          "internalType": "uint8",
          "name": "",
          "type": "uint8"
        }
      ],
      "stateMutability": "view",
      "type": "function",
      "constant": true
    },
    {
      "inputs": [
        {
          "internalType": "address",
          "name": "spender",
          "type": "address"
        },
        {
          "internalType": "uint256",
          "name": "subtractedValue",
          "type": "uint256"
        }
      ],
      "name": "decreaseAllowance",
      "outputs": [
        {
          "internalType": "bool",
          "name": "",
          "type": "bool"
        }
      ],
      "stateMutability": "nonpayable",
      "type": "function"
    },
    {
      "inputs": [
        {
          "internalType": "address",
          "name": "spender",
          "type": "address"
        },
        {
          "internalType": "uint256",
          "name": "addedValue",
          "type": "uint256"
        }
      ],
      "name": "increaseAllowance",
      "outputs": [
        {
          "internalType": "bool",
          "name": "",
          "type": "bool"
        }
      ],
      "stateMutability": "nonpayable",
      "type": "function"
    },
    {
      "inputs": [],
      "name": "name",
      "outputs": [
        {
          "internalType": "string",
          "name": "",
          "type": "string"
        }
      ],
      "stateMutability": "view",
      "type": "function",
      "constant": true
    },
    {
      "inputs": [],
      "name": "owner",
      "outputs": [
        {
          "internalType": "address",
          "name": "",
          "type": "address"
        }
      ],
      "stateMutability": "view",
      "type": "function",
      "constant": true
    },
    {
      "inputs": [],
      "name": "renounceOwnership",
      "outputs": [],
      "stateMutability": "nonpayable",
      "type": "function"
    },
    {
      "inputs": [],
      "name": "symbol",
      "outputs": [
        {
          "internalType": "string",
          "name": "",
          "type": "string"
        }
      ],
      "stateMutability": "view",
      "type": "function",
      "constant": true
    },
    {
      "inputs": [],
      "name": "totalSupply",
      "outputs": [
        {
          "internalType": "uint256",
          "name": "",
          "type": "uint256"
        }
      ],
      "stateMutability": "view",
      "type": "function",
      "constant": true
    },
    {
      "inputs": [
        {
          "internalType": "address",
          "name": "recipient",
          "type": "address"
        },
        {
          "internalType": "uint256",
          "name": "amount",
          "type": "uint256"
        }
      ],
      "name": "transfer",
      "outputs": [
        {
          "internalType": "bool",
          "name": "",
          "type": "bool"
        }
      ],
      "stateMutability": "nonpayable",
      "type": "function"
    },
    {
      "inputs": [
        {
          "internalType": "address",
          "name": "sender",
          "type": "address"
        },
        {
          "internalType": "address",
          "name": "recipient",
          "type": "address"
        },
        {
          "internalType": "uint256",
          "name": "amount",
          "type": "uint256"
        }
      ],
      "name": "transferFrom",
      "outputs": [
        {
          "internalType": "bool",
          "name": "",
          "type": "bool"
        }
      ],
      "stateMutability": "nonpayable",
      "type": "function"
    },
    {
      "inputs": [
        {
          "internalType": "address",
          "name": "newOwner",
          "type": "address"
        }
      ],
      "name": "transferOwnership",
      "outputs": [],
      "stateMutability": "nonpayable",
      "type": "function"
    },
    {
      "inputs": [
        {
          "internalType": "address",
          "name": "newAdmin",
          "type": "address"
        }
      ],
      "name": "addAdmin",
      "outputs": [],
      "stateMutability": "nonpayable",
      "type": "function"
    },
    {
      "inputs": [
        {
          "internalType": "address",
          "name": "admin",
          "type": "address"
        }
      ],
      "name": "removeAdmin",
      "outputs": [],
      "stateMutability": "nonpayable",
      "type": "function"
    },
    {
      "inputs": [
        {
          "internalType": "address",
          "name": "to",
          "type": "address"
        },
        {
          "internalType": "uint256",
          "name": "amount",
          "type": "uint256"
        }
      ],
      "name": "mint",
      "outputs": [],
      "stateMutability": "nonpayable",
      "type": "function"
    },
    {
      "inputs": [
        {
          "internalType": "address",
          "name": "owner",
          "type": "address"
        },
        {
          "internalType": "uint256",
          "name": "amount",
          "type": "uint256"
        }
      ],
      "name": "burn",
      "outputs": [],
      "stateMutability": "nonpayable",
      "type": "function"
    }
  ],
  "bytecode": "0x60806040523480156200001157600080fd5b5060405162002845380380620028458339818101604052810190620000379190620002dd565b8181816003908051906020019062000051929190620001bb565b5080600490805190602001906200006a929190620001bb565b5050506200008d62000081620000ed60201b60201c565b620000f560201b60201c565b6001600660003373ffffffffffffffffffffffffffffffffffffffff1673ffffffffffffffffffffffffffffffffffffffff16815260200190815260200160002060006101000a81548160ff021916908315150217905550505062000481565b600033905090565b6000600560009054906101000a900473ffffffffffffffffffffffffffffffffffffffff16905081600560006101000a81548173ffffffffffffffffffffffffffffffffffffffff021916908373ffffffffffffffffffffffffffffffffffffffff1602179055508173ffffffffffffffffffffffffffffffffffffffff168173ffffffffffffffffffffffffffffffffffffffff167f8be0079c531659141344cd1fd0a4f28419497f9722a3daafe3b4186f6b6457e060405160405180910390a35050565b828054620001c990620003ed565b90600052602060002090601f016020900481019282620001ed576000855562000239565b82601f106200020857805160ff191683800117855562000239565b8280016001018555821562000239579182015b82811115620002385782518255916020019190600101906200021b565b5b5090506200024891906200024c565b5090565b5b80821115620002675760008160009055506001016200024d565b5090565b6000620002826200027c8462000384565b62000350565b9050828152602081018484840111156200029b57600080fd5b620002a8848285620003b7565b509392505050565b600082601f830112620002c257600080fd5b8151620002d48482602086016200026b565b91505092915050565b60008060408385031215620002f157600080fd5b600083015167ffffffffffffffff8111156200030c57600080fd5b6200031a85828601620002b0565b925050602083015167ffffffffffffffff8111156200033857600080fd5b6200034685828601620002b0565b9150509250929050565b6000604051905081810181811067ffffffffffffffff821117156200037a576200037962000452565b5b8060405250919050565b600067ffffffffffffffff821115620003a257620003a162000452565b5b601f19601f8301169050602081019050919050565b60005b83811015620003d7578082015181840152602081019050620003ba565b83811115620003e7576000848401525b50505050565b600060028204905060018216806200040657607f821691505b602082108114156200041d576200041c62000423565b5b50919050565b7f4e487b7100000000000000000000000000000000000000000000000000000000600052602260045260246000fd5b7f4e487b7100000000000000000000000000000000000000000000000000000000600052604160045260246000fd5b6123b480620004916000396000f3fe608060405234801561001057600080fd5b50600436106101215760003560e01c806370480275116100ad5780639dc29fac116100715780639dc29fac1461030a578063a457c2d714610326578063a9059cbb14610356578063dd62ed3e14610386578063f2fde38b146103b657610121565b8063704802751461027857806370a0823114610294578063715018a6146102c45780638da5cb5b146102ce57806395d89b41146102ec57610121565b806323b872dd116100f457806323b872dd146101ae578063313ce567146101de57806339509351146101fc57806340c10f191461022c578063429b62e51461024857610121565b806306fdde0314610126578063095ea7b3146101445780631785f53c1461017457806318160ddd14610190575b600080fd5b61012e6103d2565b60405161013b9190611f29565b60405180910390f35b61015e6004803603810190610159919061188f565b610464565b60405161016b9190611f0e565b60405180910390f35b61018e600480360381019061018991906117db565b610482565b005b610198610697565b6040516101a5919061214b565b60405180910390f35b6101c860048036038101906101c39190611840565b6106a1565b6040516101d59190611f0e565b60405180910390f35b6101e6610799565b6040516101f39190612166565b60405180910390f35b6102166004803603810190610211919061188f565b6107a2565b6040516102239190611f0e565b60405180910390f35b6102466004803603810190610241919061188f565b61084e565b005b610262600480360381019061025d91906117db565b6108e8565b60405161026f9190611f0e565b60405180910390f35b610292600480360381019061028d91906117db565b610908565b005b6102ae60048036038101906102a991906117db565b610aa8565b6040516102bb919061214b565b60405180910390f35b6102cc610af0565b005b6102d6610b78565b6040516102e39190611ebc565b60405180910390f35b6102f4610ba2565b6040516103019190611f29565b60405180910390f35b610324600480360381019061031f919061188f565b610c34565b005b610340600480360381019061033b919061188f565b610cce565b60405161034d9190611f0e565b60405180910390f35b610370600480360381019061036b919061188f565b610db9565b60405161037d9190611f0e565b60405180910390f35b6103a0600480360381019061039b9190611804565b610dd7565b6040516103ad919061214b565b60405180910390f35b6103d060048036038101906103cb91906117db565b610e5e565b005b6060600380546103e1906122af565b80601f016020809104026020016040519081016040528092919081815260200182805461040d906122af565b801561045a5780601f1061042f5761010080835404028352916020019161045a565b820191906000526020600020905b81548152906001019060200180831161043d57829003601f168201915b5050505050905090565b6000610478610471610f56565b8484610f5e565b6001905092915050565b61048a610f56565b73ffffffffffffffffffffffffffffffffffffffff166104a8610b78565b73ffffffffffffffffffffffffffffffffffffffff16146104fe576040517f08c379a00000000000000000000000000000000000000000000000000000000081526004016104f59061208b565b60405180910390fd5b610506610f56565b73ffffffffffffffffffffffffffffffffffffffff168173ffffffffffffffffffffffffffffffffffffffff161415610574576040517f08c379a000000000000000000000000000000000000000000000000000000000815260040161056b9061204b565b60405180910390fd5b600660008273ffffffffffffffffffffffffffffffffffffffff1673ffffffffffffffffffffffffffffffffffffffff16815260200190815260200160002060009054906101000a900460ff16610600576040517f08c379a00000000000000000000000000000000000000000000000000000000081526004016105f790611feb565b60405180910390fd5b6000600660008373ffffffffffffffffffffffffffffffffffffffff1673ffffffffffffffffffffffffffffffffffffffff16815260200190815260200160002060006101000a81548160ff0219169083151502179055507f72857adf7e5ab35e931f38eb5492bf2b041fea2eaffb0d43d9ffa8b760bf84098142600060405161068c93929190611ed7565b60405180910390a150565b6000600254905090565b60006106ae848484611129565b6000600160008673ffffffffffffffffffffffffffffffffffffffff1673ffffffffffffffffffffffffffffffffffffffff16815260200190815260200160002060006106f9610f56565b73ffffffffffffffffffffffffffffffffffffffff1673ffffffffffffffffffffffffffffffffffffffff16815260200190815260200160002054905082811015610779576040517f08c379a00000000000000000000000000000000000000000000000000000000081526004016107709061206b565b60405180910390fd5b61078d85610785610f56565b858403610f5e565b60019150509392505050565b60006012905090565b60006108446107af610f56565b8484600160006107bd610f56565b73ffffffffffffffffffffffffffffffffffffffff1673ffffffffffffffffffffffffffffffffffffffff16815260200190815260200160002060008873ffffffffffffffffffffffffffffffffffffffff1673ffffffffffffffffffffffffffffffffffffffff1681526020019081526020016000205461083f919061219d565b610f5e565b6001905092915050565b600660003373ffffffffffffffffffffffffffffffffffffffff1673ffffffffffffffffffffffffffffffffffffffff16815260200190815260200160002060009054906101000a900460ff166108da576040517f08c379a00000000000000000000000000000000000000000000000000000000081526004016108d190611f6b565b60405180910390fd5b6108e482826113aa565b5050565b60066020528060005260406000206000915054906101000a900460ff1681565b610910610f56565b73ffffffffffffffffffffffffffffffffffffffff1661092e610b78565b73ffffffffffffffffffffffffffffffffffffffff1614610984576040517f08c379a000000000000000000000000000000000000000000000000000000000815260040161097b9061208b565b60405180910390fd5b600660008273ffffffffffffffffffffffffffffffffffffffff1673ffffffffffffffffffffffffffffffffffffffff16815260200190815260200160002060009054906101000a900460ff1615610a11576040517f08c379a0000000000000000000000000000000000000000000000000000000008152600401610a089061202b565b60405180910390fd5b6001600660008373ffffffffffffffffffffffffffffffffffffffff1673ffffffffffffffffffffffffffffffffffffffff16815260200190815260200160002060006101000a81548160ff0219169083151502179055507f72857adf7e5ab35e931f38eb5492bf2b041fea2eaffb0d43d9ffa8b760bf840981426001604051610a9d93929190611ed7565b60405180910390a150565b60008060008373ffffffffffffffffffffffffffffffffffffffff1673ffffffffffffffffffffffffffffffffffffffff168152602001908152602001600020549050919050565b610af8610f56565b73ffffffffffffffffffffffffffffffffffffffff16610b16610b78565b73ffffffffffffffffffffffffffffffffffffffff1614610b6c576040517f08c379a0000000000000000000000000000000000000000000000000000000008152600401610b639061208b565b60405180910390fd5b610b76600061150a565b565b6000600560009054906101000a900473ffffffffffffffffffffffffffffffffffffffff16905090565b606060048054610bb1906122af565b80601f0160208091040260200160405190810160405280929190818152602001828054610bdd906122af565b8015610c2a5780601f10610bff57610100808354040283529160200191610c2a565b820191906000526020600020905b815481529060010190602001808311610c0d57829003601f168201915b5050505050905090565b600660003373ffffffffffffffffffffffffffffffffffffffff1673ffffffffffffffffffffffffffffffffffffffff16815260200190815260200160002060009054906101000a900460ff16610cc0576040517f08c379a0000000000000000000000000000000000000000000000000000000008152600401610cb790611f6b565b60405180910390fd5b610cca82826115d0565b5050565b60008060016000610cdd610f56565b73ffffffffffffffffffffffffffffffffffffffff1673ffffffffffffffffffffffffffffffffffffffff16815260200190815260200160002060008573ffffffffffffffffffffffffffffffffffffffff1673ffffffffffffffffffffffffffffffffffffffff16815260200190815260200160002054905082811015610d9a576040517f08c379a0000000000000000000000000000000000000000000000000000000008152600401610d919061210b565b60405180910390fd5b610dae610da5610f56565b85858403610f5e565b600191505092915050565b6000610dcd610dc6610f56565b8484611129565b6001905092915050565b6000600160008473ffffffffffffffffffffffffffffffffffffffff1673ffffffffffffffffffffffffffffffffffffffff16815260200190815260200160002060008373ffffffffffffffffffffffffffffffffffffffff1673ffffffffffffffffffffffffffffffffffffffff16815260200190815260200160002054905092915050565b610e66610f56565b73ffffffffffffffffffffffffffffffffffffffff16610e84610b78565b73ffffffffffffffffffffffffffffffffffffffff1614610eda576040517f08c379a0000000000000000000000000000000000000000000000000000000008152600401610ed19061208b565b60405180910390fd5b600073ffffffffffffffffffffffffffffffffffffffff168173ffffffffffffffffffffffffffffffffffffffff161415610f4a576040517f08c379a0000000000000000000000000000000000000000000000000000000008152600401610f4190611fab565b60405180910390fd5b610f538161150a565b50565b600033905090565b600073ffffffffffffffffffffffffffffffffffffffff168373ffffffffffffffffffffffffffffffffffffffff161415610fce576040517f08c379a0000000000000000000000000000000000000000000000000000000008152600401610fc5906120eb565b60405180910390fd5b600073ffffffffffffffffffffffffffffffffffffffff168273ffffffffffffffffffffffffffffffffffffffff16141561103e576040517f08c379a000000000000000000000000000000000000000000000000000000000815260040161103590611fcb565b60405180910390fd5b80600160008573ffffffffffffffffffffffffffffffffffffffff1673ffffffffffffffffffffffffffffffffffffffff16815260200190815260200160002060008473ffffffffffffffffffffffffffffffffffffffff1673ffffffffffffffffffffffffffffffffffffffff168152602001908152602001600020819055508173ffffffffffffffffffffffffffffffffffffffff168373ffffffffffffffffffffffffffffffffffffffff167f8c5be1e5ebec7d5bd14f71427d1e84f3dd0314c0f7b2291e5b200ac8c7c3b9258360405161111c919061214b565b60405180910390a3505050565b600073ffffffffffffffffffffffffffffffffffffffff168373ffffffffffffffffffffffffffffffffffffffff161415611199576040517f08c379a0000000000000000000000000000000000000000000000000000000008152600401611190906120cb565b60405180910390fd5b600073ffffffffffffffffffffffffffffffffffffffff168273ffffffffffffffffffffffffffffffffffffffff161415611209576040517f08c379a000000000000000000000000000000000000000000000000000000000815260040161120090611f4b565b60405180910390fd5b6112148383836117a7565b60008060008573ffffffffffffffffffffffffffffffffffffffff1673ffffffffffffffffffffffffffffffffffffffff1681526020019081526020016000205490508181101561129a576040517f08c379a00000000000000000000000000000000000000000000000000000000081526004016112919061200b565b60405180910390fd5b8181036000808673ffffffffffffffffffffffffffffffffffffffff1673ffffffffffffffffffffffffffffffffffffffff16815260200190815260200160002081905550816000808573ffffffffffffffffffffffffffffffffffffffff1673ffffffffffffffffffffffffffffffffffffffff168152602001908152602001600020600082825461132d919061219d565b925050819055508273ffffffffffffffffffffffffffffffffffffffff168473ffffffffffffffffffffffffffffffffffffffff167fddf252ad1be2c89b69c2b068fc378daa952ba7f163c4a11628f55a4df523b3ef84604051611391919061214b565b60405180910390a36113a48484846117ac565b50505050565b600073ffffffffffffffffffffffffffffffffffffffff168273ffffffffffffffffffffffffffffffffffffffff16141561141a576040517f08c379a00000000000000000000000000000000000000000000000000000000081526004016114119061212b565b60405180910390fd5b611426600083836117a7565b8060026000828254611438919061219d565b92505081905550806000808473ffffffffffffffffffffffffffffffffffffffff1673ffffffffffffffffffffffffffffffffffffffff168152602001908152602001600020600082825461148d919061219d565b925050819055508173ffffffffffffffffffffffffffffffffffffffff16600073ffffffffffffffffffffffffffffffffffffffff167fddf252ad1be2c89b69c2b068fc378daa952ba7f163c4a11628f55a4df523b3ef836040516114f2919061214b565b60405180910390a3611506600083836117ac565b5050565b6000600560009054906101000a900473ffffffffffffffffffffffffffffffffffffffff16905081600560006101000a81548173ffffffffffffffffffffffffffffffffffffffff021916908373ffffffffffffffffffffffffffffffffffffffff1602179055508173ffffffffffffffffffffffffffffffffffffffff168173ffffffffffffffffffffffffffffffffffffffff167f8be0079c531659141344cd1fd0a4f28419497f9722a3daafe3b4186f6b6457e060405160405180910390a35050565b600073ffffffffffffffffffffffffffffffffffffffff168273ffffffffffffffffffffffffffffffffffffffff161415611640576040517f08c379a0000000000000000000000000000000000000000000000000000000008152600401611637906120ab565b60405180910390fd5b61164c826000836117a7565b60008060008473ffffffffffffffffffffffffffffffffffffffff1673ffffffffffffffffffffffffffffffffffffffff168152602001908152602001600020549050818110156116d2576040517f08c379a00000000000000000000000000000000000000000000000000000000081526004016116c990611f8b565b60405180910390fd5b8181036000808573ffffffffffffffffffffffffffffffffffffffff1673ffffffffffffffffffffffffffffffffffffffff16815260200190815260200160002081905550816002600082825461172991906121f3565b92505081905550600073ffffffffffffffffffffffffffffffffffffffff168373ffffffffffffffffffffffffffffffffffffffff167fddf252ad1be2c89b69c2b068fc378daa952ba7f163c4a11628f55a4df523b3ef8460405161178e919061214b565b60405180910390a36117a2836000846117ac565b505050565b505050565b505050565b6000813590506117c081612350565b92915050565b6000813590506117d581612367565b92915050565b6000602082840312156117ed57600080fd5b60006117fb848285016117b1565b91505092915050565b6000806040838503121561181757600080fd5b6000611825858286016117b1565b9250506020611836858286016117b1565b9150509250929050565b60008060006060848603121561185557600080fd5b6000611863868287016117b1565b9350506020611874868287016117b1565b9250506040611885868287016117c6565b9150509250925092565b600080604083850312156118a257600080fd5b60006118b0858286016117b1565b92505060206118c1858286016117c6565b9150509250929050565b6118d481612227565b82525050565b6118e381612239565b82525050565b60006118f482612181565b6118fe818561218c565b935061190e81856020860161227c565b6119178161233f565b840191505092915050565b600061192f60238361218c565b91507f45524332303a207472616e7366657220746f20746865207a65726f206164647260008301527f65737300000000000000000000000000000000000000000000000000000000006020830152604082019050919050565b6000611995601b8361218c565b91507f6f6e6c792061646d696e732063616e206d696e7420746f6b656e7300000000006000830152602082019050919050565b60006119d560228361218c565b91507f45524332303a206275726e20616d6f756e7420657863656564732062616c616e60008301527f63650000000000000000000000000000000000000000000000000000000000006020830152604082019050919050565b6000611a3b60268361218c565b91507f4f776e61626c653a206e6577206f776e657220697320746865207a65726f206160008301527f64647265737300000000000000000000000000000000000000000000000000006020830152604082019050919050565b6000611aa160228361218c565b91507f45524332303a20617070726f766520746f20746865207a65726f20616464726560008301527f73730000000000000000000000000000000000000000000000000000000000006020830152604082019050919050565b6000611b0760148361218c565b91507f41646d696e20646f6573206e6f742065786973740000000000000000000000006000830152602082019050919050565b6000611b4760268361218c565b91507f45524332303a207472616e7366657220616d6f756e742065786365656473206260008301527f616c616e636500000000000000000000000000000000000000000000000000006020830152604082019050919050565b6000611bad60138361218c565b91507f41646d696e20616c7265616479206578697374000000000000000000000000006000830152602082019050919050565b6000611bed601c8361218c565b91507f63616e6e6f742072656d6f7665206f776e65722061732061646d696e000000006000830152602082019050919050565b6000611c2d60288361218c565b91507f45524332303a207472616e7366657220616d6f756e742065786365656473206160008301527f6c6c6f77616e63650000000000000000000000000000000000000000000000006020830152604082019050919050565b6000611c9360208361218c565b91507f4f776e61626c653a2063616c6c6572206973206e6f7420746865206f776e65726000830152602082019050919050565b6000611cd360218361218c565b91507f45524332303a206275726e2066726f6d20746865207a65726f2061646472657360008301527f73000000000000000000000000000000000000000000000000000000000000006020830152604082019050919050565b6000611d3960258361218c565b91507f45524332303a207472616e736665722066726f6d20746865207a65726f20616460008301527f64726573730000000000000000000000000000000000000000000000000000006020830152604082019050919050565b6000611d9f60248361218c565b91507f45524332303a20617070726f76652066726f6d20746865207a65726f2061646460008301527f72657373000000000000000000000000000000000000000000000000000000006020830152604082019050919050565b6000611e0560258361218c565b91507f45524332303a2064656372656173656420616c6c6f77616e63652062656c6f7760008301527f207a65726f0000000000000000000000000000000000000000000000000000006020830152604082019050919050565b6000611e6b601f8361218c565b91507f45524332303a206d696e7420746f20746865207a65726f2061646472657373006000830152602082019050919050565b611ea781612265565b82525050565b611eb68161226f565b82525050565b6000602082019050611ed160008301846118cb565b92915050565b6000606082019050611eec60008301866118cb565b611ef96020830185611e9e565b611f0660408301846118da565b949350505050565b6000602082019050611f2360008301846118da565b92915050565b60006020820190508181036000830152611f4381846118e9565b905092915050565b60006020820190508181036000830152611f6481611922565b9050919050565b60006020820190508181036000830152611f8481611988565b9050919050565b60006020820190508181036000830152611fa4816119c8565b9050919050565b60006020820190508181036000830152611fc481611a2e565b9050919050565b60006020820190508181036000830152611fe481611a94565b9050919050565b6000602082019050818103600083015261200481611afa565b9050919050565b6000602082019050818103600083015261202481611b3a565b9050919050565b6000602082019050818103600083015261204481611ba0565b9050919050565b6000602082019050818103600083015261206481611be0565b9050919050565b6000602082019050818103600083015261208481611c20565b9050919050565b600060208201905081810360008301526120a481611c86565b9050919050565b600060208201905081810360008301526120c481611cc6565b9050919050565b600060208201905081810360008301526120e481611d2c565b9050919050565b6000602082019050818103600083015261210481611d92565b9050919050565b6000602082019050818103600083015261212481611df8565b9050919050565b6000602082019050818103600083015261214481611e5e565b9050919050565b60006020820190506121606000830184611e9e565b92915050565b600060208201905061217b6000830184611ead565b92915050565b600081519050919050565b600082825260208201905092915050565b60006121a882612265565b91506121b383612265565b9250827fffffffffffffffffffffffffffffffffffffffffffffffffffffffffffffffff038211156121e8576121e76122e1565b5b828201905092915050565b60006121fe82612265565b915061220983612265565b92508282101561221c5761221b6122e1565b5b828203905092915050565b600061223282612245565b9050919050565b60008115159050919050565b600073ffffffffffffffffffffffffffffffffffffffff82169050919050565b6000819050919050565b600060ff82169050919050565b60005b8381101561229a57808201518184015260208101905061227f565b838111156122a9576000848401525b50505050565b600060028204905060018216806122c757607f821691505b602082108114156122db576122da612310565b5b50919050565b7f4e487b7100000000000000000000000000000000000000000000000000000000600052601160045260246000fd5b7f4e487b7100000000000000000000000000000000000000000000000000000000600052602260045260246000fd5b6000601f19601f8301169050919050565b61235981612227565b811461236457600080fd5b50565b61237081612265565b811461237b57600080fd5b5056fea2646970667358221220dd8c53b0fa528d4124b4969d50b0b340dd8a120a2b30c5833d9eb47e1dd7948164736f6c63430008000033",
  "immutableReferences": {},
  "source": "// SPDX-License-Identifier: MIT\n\npragma solidity 0.8.0;\n\nimport '@openzeppelin/contracts/token/ERC20/ERC20.sol';\nimport '@openzeppelin/contracts/access/Ownable.sol';\n\ncontract Token is ERC20, Ownable {\n\n  mapping(address => bool) public admins;\n\n  event Admins(address admin, uint time, bool active );\n\n  modifier onlyAdmins() {\n    require(admins[msg.sender], \"only admins can mint tokens\");\n    _;\n  }\n  \n  constructor(string memory name, string memory symbol) ERC20(name, symbol) {\n    admins[msg.sender] = true;\n  }\n\n  function addAdmin(address newAdmin) external onlyOwner {\n    require(!admins[newAdmin], \"Admin already exist\");\n    admins[newAdmin] = true;\n    emit Admins(newAdmin, block.timestamp, true);\n  } \n  \n  function removeAdmin(address admin) external onlyOwner {\n    require(admin != _msgSender(), 'cannot remove owner as admin');\n    require(admins[admin], \"Admin does not exist\");\n    admins[admin] = false;\n    emit Admins(admin, block.timestamp, false);\n  }\n\n  function mint(address to, uint amount) external onlyAdmins{\n    _mint(to, amount);\n  }\n\n  function burn(address owner, uint amount) external onlyAdmins{\n    _burn(owner, amount);\n  }\n\n\n}\n",
  "sourcePath": "/home/petermunachi/Documents/Projects/dd-task/server/contracts/Token.sol",
  "compiler": {
    "name": "solc",
    "version": "0.8.0+commit.c7dfd78e.Emscripten.clang"
  },
  "schemaVersion": "3.4.3",
  "updatedAt": "2021-11-03T16:38:34.132Z",
  "networkType": "ethereum",
  "devdoc": {
    "kind": "dev",
    "methods": {
      "allowance(address,address)": {
        "details": "See {IERC20-allowance}."
      },
      "approve(address,uint256)": {
        "details": "See {IERC20-approve}. Requirements: - `spender` cannot be the zero address."
      },
      "balanceOf(address)": {
        "details": "See {IERC20-balanceOf}."
      },
      "decimals()": {
        "details": "Returns the number of decimals used to get its user representation. For example, if `decimals` equals `2`, a balance of `505` tokens should be displayed to a user as `5.05` (`505 / 10 ** 2`). Tokens usually opt for a value of 18, imitating the relationship between Ether and Wei. This is the value {ERC20} uses, unless this function is overridden; NOTE: This information is only used for _display_ purposes: it in no way affects any of the arithmetic of the contract, including {IERC20-balanceOf} and {IERC20-transfer}."
      },
      "decreaseAllowance(address,uint256)": {
        "details": "Atomically decreases the allowance granted to `spender` by the caller. This is an alternative to {approve} that can be used as a mitigation for problems described in {IERC20-approve}. Emits an {Approval} event indicating the updated allowance. Requirements: - `spender` cannot be the zero address. - `spender` must have allowance for the caller of at least `subtractedValue`."
      },
      "increaseAllowance(address,uint256)": {
        "details": "Atomically increases the allowance granted to `spender` by the caller. This is an alternative to {approve} that can be used as a mitigation for problems described in {IERC20-approve}. Emits an {Approval} event indicating the updated allowance. Requirements: - `spender` cannot be the zero address."
      },
      "name()": {
        "details": "Returns the name of the token."
      },
      "owner()": {
        "details": "Returns the address of the current owner."
      },
      "renounceOwnership()": {
        "details": "Leaves the contract without owner. It will not be possible to call `onlyOwner` functions anymore. Can only be called by the current owner. NOTE: Renouncing ownership will leave the contract without an owner, thereby removing any functionality that is only available to the owner."
      },
      "symbol()": {
        "details": "Returns the symbol of the token, usually a shorter version of the name."
      },
      "totalSupply()": {
        "details": "See {IERC20-totalSupply}."
      },
      "transfer(address,uint256)": {
        "details": "See {IERC20-transfer}. Requirements: - `recipient` cannot be the zero address. - the caller must have a balance of at least `amount`."
      },
      "transferFrom(address,address,uint256)": {
        "details": "See {IERC20-transferFrom}. Emits an {Approval} event indicating the updated allowance. This is not required by the EIP. See the note at the beginning of {ERC20}. Requirements: - `sender` and `recipient` cannot be the zero address. - `sender` must have a balance of at least `amount`. - the caller must have allowance for ``sender``'s tokens of at least `amount`."
      },
      "transferOwnership(address)": {
        "details": "Transfers ownership of the contract to a new account (`newOwner`). Can only be called by the current owner."
      }
    },
    "version": 1
  },
  "userdoc": {
    "kind": "user",
    "methods": {},
    "version": 1
  }
}